:020000040800F2
:1000000000000120054E0008D14B0008D74B000826
:10001000DD4B0008E34B0008E94B0008000000003E
:10002000000000000000000000000000EF4B00088E
:10003000FD4B0008000000000B4C0008194C0008A4
:10004000554E0008554E0008554E0008554E000804
:10005000554E0008554E0008554E0008254C000826
:10006000334C0008554E0008554E0008554E000808
:10007000554E0008554E0008554E0008554E0008D4
:10008000554E0008554E0008554E0008000000006F
:10009000000000000000000000000000554E0008B5
:1000A000554E0008554E0008554E0008554E0008A4
:1000B000554E0008554E0008554E0008554E000894
:1000C000554E0008554E0008554E0008554E000884
:1000D000554E0008414C0008554E00080000000035
:1000E000554E0008554E0008554E0008000000000F
:1000F000000000000000000000000000554E000855
:1001000000000000554E0008554E0008554E0008EE
:1001100000000000000000000000000000000000DF
:10012000554E0008554E0008554E0008554E000823
:10013000554E000800000000000000000000000014
:10014000000000000000000000000000554E000804
:10015000554E0008554E0008554E0008554E0008F3
:10016000554E0008554E0008000000000000000039
:10017000000000000000000000000000000000007F
:1001800000000000554E00080000000000000000C4
:04019000554E0008C0
:1001A00010B5054C237833B9044B13B10448AFF3B1
:1001B00000800123237010BDDC010020000000003E
:1001C000E47B000808B5034B1BB103490348AFF3B8
:1001D000008008BD00000000E0010020E47B000872
:1001E000034613F8012B002AFBD1181A0138704777
:1001F00001F0FF01102A2BDB10F0070F08D010F8D8
:10020000013B013A8B422DD010F0070F42B3F6D1DB
:10021000F0B441EA012141EA014122F007047FF0F4
:1002200000070023F0E80256083C85EA010586EA4B
:10023000010685FA47F5A3FA87F586FA47F6A5FA87
:1002400087F68EB9EED1F0BC01F0FF0102F0070293
:1002500032B110F8013B013A83EA010313B1F8D13E
:100260000020704701387047002D06BF354603381F
:10027000073815F0010F07D1013015F4807F02BF58
:10028000013015F4C03F0130F0BC0138704700BFA9
:1002900081F0004102E000BF83F0004330B54FEA37
:1002A00041044FEA430594EA050F08BF90EA020FA4
:1002B0001FBF54EA000C55EA020C7FEA645C7FEA37
:1002C000655C00F0E2804FEA5454D4EB5555B8BF5A
:1002D0006D420CDD2C4480EA020281EA030382EACB
:1002E000000083EA010180EA020281EA0303362D5D
:1002F00088BF30BD11F0004F4FEA01314FF4801C30
:100300004CEA113102D0404261EB410113F0004F41
:100310004FEA03334CEA133302D0524263EB4303F8
:1003200094EA050F00F0A780A4F10104D5F1200E96
:100330000DDB02FA0EFC22FA05F2801841F10001F1
:1003400003FA0EF2801843FA05F359410EE0A5F1C5
:1003500020050EF1200E012A03FA0EFC28BF4CF0F6
:10036000020C43FA05F3C01851EBE37101F00045AC
:1003700007D54FF0000EDCF1000C7EEB00006EEBB9
:100380000101B1F5801F1BD3B1F5001F0CD3490843
:100390005FEA30004FEA3C0C04F101044FEA44529A
:1003A00012F5800F80F09A80BCF1004F08BF5FEA21
:1003B000500C50F1000041EB045141EA050130BD01
:1003C0005FEA4C0C404141EB0101013C28BFB1F513
:1003D000801FE9D291F0000F04BF01460020B1FA5E
:1003E00081F308BF2033A3F10B03B3F120020CDA31
:1003F0000C3208DD02F1140CC2F10C0201FA0CF00F
:1004000021FA02F10CE002F11402D8BFC2F1200C73
:1004100001FA02F120FA0CFCDCBF41EA0C01904029
:10042000E41AA2BF01EB0451294330BD6FEA040472
:100430001F3C1CDA0C340EDC04F11404C4F120025D
:1004400020FA04F001FA02F340EA030021FA04F36F
:1004500045EA030130BDC4F10C04C4F1200220FAC6
:1004600002F001FA04F340EA0300294630BD21FA04
:1004700004F0294630BD94F0000F83F4801306BFCA
:1004800081F480110134013D4EE77FEA645C18BFBE
:100490007FEA655C29D094EA050F08BF90EA020F55
:1004A00005D054EA000C04BF1946104630BD91EA4D
:1004B000030F1EBF0021002030BD5FEA545C05D150
:1004C0004000494128BF41F0004130BD14F580048F
:1004D0003CBF01F5801130BD01F0004545F0FE4103
:1004E00041F470014FF0000030BD7FEA645C1ABF38
:1004F000194610467FEA655C1CBF0B46024650EA6F
:10050000013406BF52EA033591EA030F41F400219A
:1005100030BD00BF90F0000F04BF0021704730B520
:100520004FF4806404F132044FF000054FF00001F5
:1005300050E700BF90F0000F04BF0021704730B5B6
:100540004FF4806404F1320410F0004548BF40428B
:100550004FF000013EE700BF42004FEAE2014FEAE0
:1005600031014FEA02701FBF12F07F4393F07F4FBB
:1005700081F06051704732F07F4208BF704793F0BE
:100580007F4F04BF41F40021704730B54FF46074D1
:1005900001F0004521F000411CE700BF50EA0102D4
:1005A00008BF704730B54FF000050AE050EA01027D
:1005B00008BF704730B511F0004502D5404261EBED
:1005C00041014FF4806404F132045FEA915C3FF42E
:1005D000D8AE4FF003025FEADC0C18BF03325FEACB
:1005E000DC0C18BF033202EBDC02C2F1200300FA7C
:1005F00003FC20FA02F001FA03FE40EA0E0021FAA1
:1006000002F11444BDE600BF70B54FF0FF0C4CF48E
:10061000E06C1CEA11541DBF1CEA135594EA0C0F40
:1006200095EA0C0F00F0DEF82C4481EA030621EA7B
:100630004C5123EA4C5350EA013518BF52EA0335B6
:1006400041F4801143F4801338D0A0FB02CE4FF068
:100650000005E1FB02E506F00042E0FB03E54FF098
:100660000006E1FB03569CF0000F18BF4EF0010E90
:10067000A4F1FF04B6F5007F64F5407404D25FEA8C
:100680004E0E6D4146EB060642EAC62141EA55513F
:100690004FEAC52040EA5E504FEACE2EB4F1FD0C81
:1006A00088BFBCF5E06F1ED8BEF1004F08BF5FEAFF
:1006B000500E50F1000041EB045170BD06F00046B1
:1006C00046EA010140EA020081EA0301B4EB5C045E
:1006D000C2BFD4EB0C0541EA045170BD41F4801156
:1006E0004FF0000E013C00F3AB8014F1360FDEBF7B
:1006F000002001F0004170BDC4F10004203C35DA57
:100700000C341BDC04F11404C4F1200500FA05F3D9
:1007100020FA04F001FA05F240EA020001F000427A
:1007200021F0004110EBD37021FA04F642EB0601F0
:100730005EEA430E08BF20EAD37070BDC4F10C041A
:10074000C4F1200500FA04F320FA05F001FA04F2DE
:1007500040EA020001F0004110EBD37041F10001CA
:100760005EEA430E08BF20EAD37070BDC4F12005D5
:1007700000FA05F24EEA020E20FA04F301FA05F23D
:1007800043EA020321FA04F001F0004121FA04F2E5
:1007900020EA020000EBD3705EEA430E08BF20EAB5
:1007A000D37070BD94F0000F0FD101F000464000EF
:1007B00041EB010111F4801F08BF013CF7D041EA71
:1007C000060195F0000F18BF704703F00046520075
:1007D00043EB030313F4801F08BF013DF7D043EA46
:1007E0000603704794EA0C0F0CEA135518BF95EAFC
:1007F0000C0F0CD050EA410618BF52EA4306D1D183
:1008000081EA030101F000414FF0000070BD50EAA1
:10081000410606BF1046194652EA430619D094EA2B
:100820000C0F02D150EA013613D195EA0C0F05D115
:1008300052EA03361CBF104619460AD181EA030169
:1008400001F0004141F0FE4141F470014FF0000021
:1008500070BD41F0FE4141F4780170BD70B54FF0BC
:10086000FF0C4CF4E06C1CEA11541DBF1CEA13553C
:1008700094EA0C0F95EA0C0F00F0A7F8A4EB05041E
:1008800081EA030E52EA03354FEA013100F0888015
:100890004FEA03334FF0805545EA131343EA1263DE
:1008A0004FEA022245EA111545EA10654FEA002693
:1008B0000EF000419D4208BF964244F1FD0404F54C
:1008C000407402D25B084FEA3202B61A65EB0305A8
:1008D0005B084FEA32024FF480104FF4002CB6EB65
:1008E000020E75EB030E22BFB61A754640EA0C00E5
:1008F0005B084FEA3202B6EB020E75EB030E22BF25
:10090000B61A754640EA5C005B084FEA3202B6EB65
:10091000020E75EB030E22BFB61A754640EA9C0024
:100920005B084FEA3202B6EB020E75EB030E22BFF4
:10093000B61A754640EADC0055EA060E18D04FEAB2
:10094000051545EA16754FEA06164FEAC30343EA52
:1009500052734FEAC2025FEA1C1CC0D111F4801F1F
:100960000BD141EA00014FF000004FF0004CB6E718
:1009700011F4801F04BF01430020B4F1FD0C88BFB7
:10098000BCF5E06F3FF6AFAEB5EB030C04BFB6EBC2
:10099000020C5FEA500C50F1000041EB045170BDB5
:1009A0000EF0004E4EEA113114EB5C04C2BFD4EBE2
:1009B0000C0541EA045170BD41F480114FF0000E66
:1009C000013C90E645EA060E8DE60CEA135594EAE2
:1009D0000C0F08BF95EA0C0F3FF43BAF94EA0C0FE5
:1009E0000AD150EA01347FF434AF95EA0C0F7FF45A
:1009F00025AF104619462CE795EA0C0F06D152EAAE
:100A000003353FF4FDAE1046194622E750EA410691
:100A100018BF52EA43067FF4C5AE50EA41047FF4A2
:100A20000DAF52EA43057FF4EBAE12E74FF0FF3C07
:100A300006E000BF4FF0010C02E000BF4FF0010CD8
:100A40004DF804CD4FEA410C7FEA6C5C4FEA430C51
:100A500018BF7FEA6C5C1BD001B050EA410C0CBFA0
:100A600052EA430C91EA030F02BF90EA020F002002
:100A7000704710F1000F91EA030F58BF994208BF69
:100A800090422CBFD8176FEAE37040F00100704726
:100A90004FEA410C7FEA6C5C02D150EA013C07D17D
:100AA0004FEA430C7FEA6C5CD6D152EA033CD3D0C8
:100AB0005DF8040B704700BF8446104662468C46C2
:100AC0001946634600E000BF01B5FFF7B7FF0028F5
:100AD00048BF10F1000F01BD4DF808EDFFF7F4FF1E
:100AE0000CBF012000205DF808FB00BF4DF808EDA9
:100AF000FFF7EAFF34BF012000205DF808FB00BFCC
:100B00004DF808EDFFF7E0FF94BF012000205DF8ED
:100B100008FB00BF4DF808EDFFF7CEFF94BF0120A2
:100B200000205DF808FB00BF4DF808EDFFF7C4FF9B
:100B300034BF012000205DF808FB00BF4FEA410CE4
:100B40007FEA6C5C02D150EA013C0AD14FEA430CC7
:100B50007FEA6C5C02D152EA033C02D14FF0000004
:100B600070474FF0010070474FEA410212F5001242
:100B700015D211D56FF47873B3EB625212D94FEAE4
:100B8000C12343F0004343EA505311F0004F23FACE
:100B900002F018BF404270474FF00000704750EA23
:100BA000013005D111F0004008BF6FF000407047E0
:100BB0004FF00000704700BF53B94AB9002908BF81
:100BC00000281CBF4FF0FF314FF0FF3000F06EB92E
:100BD000ADF1080C6DE904CE00F006F8DDF804E094
:100BE000DDE9022304B070472DE9F047089D044673
:100BF0008C46002B40F083808A42174647D9B2FAD0
:100C000082F242B1C2F1200024FA00F091409740F4
:100C100040EA010C94404FEA1748230CBCFBF8F65D
:100C20001FFA87FE08FB16C143EA014306FB0EF1DB
:100C3000994209D9FB1806F1FF3080F019819942D9
:100C400040F21681023E3B445B1AA4B2B3FBF8F0BB
:100C500008FB103344EA034400FB0EFEA64509D905
:100C60003C1900F1FF3380F00581A64540F2028176
:100C700002383C4440EA0640A4EB0E0400261DB1B5
:100C8000D4400023C5E900433146BDE8F08702B9EE
:100C9000FFDEB2FA82F2002A50D1CB1B4FEA174E88
:100CA0001FFA87F80126B3FBFEFC210C0EFB1C3358
:100CB00041EA034108FB0CF38B4207D979180CF188
:100CC000FF3002D28B4200F2E9808446C91AA3B2F7
:100CD000B1FBFEF00EFB101143EA014408FB00F8E3
:100CE000A04507D93C1900F1FF3302D2A04500F21C
:100CF000D9801846A4EB080440EA0C40BFE78B42B9
:100D000009D9002D00F0B1800026C5E90001304668
:100D10003146BDE8F087B3FA83F6002E4AD18B4204
:100D200002D3824200F2B880841A61EB03010120F1
:100D30008C46002DA8D0C5E9004CA5E7C2F12003E0
:100D400020FA03F6974001FA02F04FEA174ED94015
:100D50003043030CB1FBFEF61FFA87F80EFB1611A9
:100D600043EA014306FB08F1994204FA02F409D967
:100D7000FB1806F1FF3C80F08D80994240F28A809A
:100D8000023E3B445B1A81B2B3FBFEF00EFB103314
:100D900041EA034100FB08F38B4207D9791800F1BF
:100DA000FF3C73D28B4271D902383944CB1A40EAE6
:100DB000064678E7C6F1200C03FA06F422FA0CF393
:100DC0001C4320FA0CF701FA06F34FEA144E21FAFD
:100DD0000CF11F433B0CB1FBFEF91FFA84F80EFB2C
:100DE000191143EA014109FB08FA8A4502FA06F2A1
:100DF00000FA06F308D9611809F1FF3048D28A4594
:100E000046D9A9F102092144A1EB0A01BFB2B1FB05
:100E1000FEF00EFB101147EA014700FB08F8B84549
:100E200007D9E71900F1FF312ED2B8452CD9023885
:100E3000274440EA0940A7EB0807A0FB02894F4579
:100E4000C64649461AD317D05DB1B3EB0E0267EB25
:100E5000010707FA0CFCF2404CEA0202F740C5E930
:100E6000002700263146BDE8F0872E4628460BE7CE
:100E70000646E9E61846FDE64345E5D2B8EB020E24
:100E800069EB04010138DFE70846D2E760468DE7E9
:100E90008146B9E7664675E730464AE7ACF1020C91
:100EA000394413E702383C4424E700BF704700BFD1
:100EB00080B500AF0E4B1B680D4A43F400731360FE
:100EC0000B4B1B680A4A43F480631360084B1B6892
:100ED000074A43F480731360032000F04FF90F209A
:100EE00000F008F803F05CFD0023184680BD00BF49
:100EF000003C024080B582B000AF7860124B1A68A7
:100F0000124B1B7819464FF47A73B3FBF1F3B2FB23
:100F1000F3F3184600F067F90346002B01D00123D4
:100F20000EE07B680F2B0AD8002279684FF0FF3063
:100F300000F02FF9064A7B681360002300E00123CC
:100F400018460837BD4680BD080000200400002078
:100F50000000002080B400AF064B1B781A46064BF9
:100F60001B681344044A136000BFBD465DF8047B50
:100F7000704700BF040000207402002080B400AF5E
:100F8000034B1B681846BD465DF8047B704700BFE5
:100F90007402002080B584B000AF7860FFF7EEFFE8
:100FA000B8607B68FB60FB68B3F1FF3F05D00A4B7C
:100FB0001B781A46FB681344FB6000BFFFF7DEFF97
:100FC0000246BB68D31AFA689A42F7D800BF00BF3E
:100FD0001037BD4680BD00BF0400002080B485B03E
:100FE00000AF78607B6803F00703FB600C4BDB68A5
:100FF000BB60BA684FF6FF031340BB60FB681A0280
:10100000BB68134343F0BF6343F40033BB60044A3F
:10101000BB68D36000BF1437BD465DF8047B7047E2
:1010200000ED00E080B400AF044BDB681B0A03F066
:1010300007031846BD465DF8047B704700ED00E0ED
:1010400080B483B000AF0346FB7197F90730002BE3
:101050000BDBFB7903F01F02074997F907305B09A7
:10106000012000FA02F241F8232000BF0C37BD46F0
:101070005DF8047B704700BF00E100E080B483B0FE
:1010800000AF03463960FB7197F90730002B0ADB8C
:101090003B68DAB20C4997F907301201D2B20B441F
:1010A00083F800230AE03B68DAB20849FB7903F0D1
:1010B0000F03043B1201D2B20B441A7600BF0C3767
:1010C000BD465DF8047B704700E100E000ED00E004
:1010D00080B489B000AFF860B9607A60FB6803F053
:1010E0000703FB61FB69C3F10703042B28BF04233B
:1010F000BB61FB690433062B02D9FB69033B00E0AB
:1011000000237B614FF0FF32BB6902FA03F3DA433D
:10111000BB681A407B699A404FF0FF317B6901FA46
:1011200003F3D9437B680B40134318462437BD466D
:101130005DF8047B7047000080B582B000AF786036
:101140007B68013BB3F1807F01D301230FE00A4AA2
:101150007B68013B53600F214FF0FF30FFF78EFF9C
:10116000054B00229A60044B07221A6000231846A0
:101170000837BD4680BD00BF10E000E080B582B0FA
:1011800000AF78607868FFF729FF00BF0837BD46D9
:1011900080BD80B586B000AF0346B9607A60FB734E
:1011A00000237B61FFF73EFF78617A68B968786950
:1011B000FFF78EFF024697F90F3011461846FFF7EA
:1011C0005DFF00BF1837BD4680BD80B582B000AF5F
:1011D0000346FB7197F907301846FFF731FF00BF50
:1011E0000837BD4680BD80B582B000AF78607868B2
:1011F000FFF7A2FF034618460837BD4680BD80B5FD
:1012000084B000AF78607B689B6DFB60FFF7B6FE33
:10121000B8607B6893F83530DBB2022B08D07B686E
:1012200080225A657B68002283F83420012352E033
:101230007B681B681A687B681B6822F016021A60BC
:101240007B681B685A697B681B6822F080025A61C0
:101250007B681B6C002B03D17B689B6C002B07D039
:101260007B681B681A687B681B6822F008021A609A
:101270007B681B681A687B681B6822F001021A6091
:1012800013E0FFF77BFE0246BB68D31A052B0CD98F
:101290007B6820225A657B68032283F835207B68AF
:1012A000002283F83420032315E07B681B681B6849
:1012B00003F00103002BE4D17B68DB6D3F229A40F1
:1012C000FB689A607B68012283F835207B680022E6
:1012D00083F83420002318461037BD4680BD80B403
:1012E00083B000AF78607B6893F83530DBB2022BB7
:1012F00004D07B6880225A6501230CE07B680522BC
:1013000083F835207B681B681A687B681B6822F0AD
:1013100001021A60002318460C37BD465DF8047BB5
:101320007047000080B489B000AF78603960002356
:101330007B6100233B610023BB610023FB6159E11A
:101340000122FB6902FA03F37B613B681B687A693F
:1013500013403B613A697B699A4240F048813B689F
:101360005B6803F00303012B05D03B685B6803F067
:101370000303022B30D17B689B68BB61FB695B0078
:10138000032202FA03F3DB43BA691340BB613B68F3
:10139000DA68FB695B0002FA03F3BA691343BB61C5
:1013A0007B68BA699A607B685B68BB610122FB69F4
:1013B00002FA03F3DB43BA691340BB613B685B6825
:1013C0001B0903F00102FB6902FA03F3BA69134334
:1013D000BB617B68BA695A603B685B6803F00303D2
:1013E000032B17D07B68DB68BB61FB695B000322C2
:1013F00002FA03F3DB43BA691340BB613B689A68A6
:10140000FB695B0002FA03F3BA691343BB617B68B3
:10141000BA69DA603B685B6803F00303022B23D1EF
:10142000FB69DA087B68083253F82230BB61FB693C
:1014300003F007039B000F2202FA03F3DB43BA69B0
:101440001340BB613B681A69FB6903F007039B000B
:1014500002FA03F3BA691343BB61FB69DA087B68DC
:101460000832B96943F822107B681B68BB61FB69CD
:101470005B00032202FA03F3DB43BA691340BB614A
:101480003B685B6803F00302FB695B0002FA03F34D
:10149000BA691343BB617B68BA691A603B685B68D1
:1014A00003F44033002B00F0A2800023FB60574B75
:1014B0005B6C564A43F480435364544B5B6C03F4B7
:1014C0008043FB60FB68524AFB699B08023352F879
:1014D0002330BB61FB6903F003039B000F2202FA78
:1014E00003F3DB43BA691340BB617B68494A93420B
:1014F00019D07B68484A934213D07B68474A93428D
:101500000DD07B68464A934207D07B68454A934298
:1015100001D1042308E0072306E0032304E00223AB
:1015200002E0012300E00023FA6902F003029200C6
:101530009340BA691343BB613549FB699B08023389
:10154000BA6941F82320384B1B68BB613B69DB4318
:10155000BA691340BB613B685B6803F48033002BBE
:1015600003D0BA693B691343BB612F4ABB6913605F
:101570002D4B5B68BB613B69DB43BA691340BB61C0
:101580003B685B6803F40033002B03D0BA693B6906
:101590001343BB61244ABB695360234B9B68BB6107
:1015A0003B69DB43BA691340BB613B685B6803F48A
:1015B0008013002B03D0BA693B691343BB611A4AFD
:1015C000BB699360184BDB68BB613B69DB43BA695D
:1015D0001340BB613B685B6803F40013002B03D02E
:1015E000BA693B691343BB610F4ABB69D360FB69AE
:1015F0000133FB61FB690F2B7FF6A2AE00BF00BF7A
:101600002437BD465DF8047B704700BF00380240B8
:10161000003801400000024000040240000802407F
:10162000000C024000100240003C014080B483B036
:1016300000AF78600B467B8013467B707B78002B75
:1016400003D07A887B689A6103E07B881A047B6800
:101650009A6100BF0C37BD465DF8047B70470000FF
:1016600080B582B000AF0346FB80084B5A69FB8807
:101670001340002B06D0054AFB885361FB881846AF
:1016800002F0CEFD00BF0837BD4680BD003C0140E2
:1016900080B586B000AF78607B68002B01D1012354
:1016A00064E27B681B6803F00103002B75D0A34B39
:1016B0009B6803F00C03042B0CD0A04B9B6803F039
:1016C0000C03082B12D19D4B5B6803F48003B3F528
:1016D000800F0BD1994B1B6803F40033002B5BD0B8
:1016E0007B685B68002B57D101233FE27B685B6816
:1016F000B3F5803F06D1914B1B68904A43F4803389
:1017000013601DE07B685B68B3F5A02F0CD18B4B99
:101710001B688A4A43F480231360884B1B68874AFE
:1017200043F4803313600BE0844B1B68834A23F43B
:1017300080331360814B1B68804A23F4802313603D
:101740007B685B68002B13D0FFF718FC386108E05A
:10175000FFF714FC02463B69D31A642B01D903231B
:1017600004E2764B1B6803F40033002BF0D014E046
:10177000FFF704FC386108E0FFF700FC02463B6914
:10178000D31A642B01D90323F0E16C4B1B6803F4DB
:101790000033002BF0D100E000BF7B681B6803F032
:1017A0000203002B63D0654B9B6803F00C03002BF6
:1017B0000BD0624B9B6803F00C03082B1CD15F4BD2
:1017C0005B6803F48003002B16D15C4B1B6803F0AD
:1017D0000203002B05D07B68DB68012B01D00123BD
:1017E000C4E1564B1B6823F0F8027B681B69DB00E1
:1017F000524913430B603AE07B68DB68002B20D032
:101800004F4B01221A60FFF7B9FB386108E0FFF780
:10181000B5FB02463B69D31A022B01D90323A5E18C
:10182000464B1B6803F00203002BF0D0434B1B68B0
:1018300023F0F8027B681B69DB00404913430B600F
:1018400015E03F4B00221A60FFF798FB386108E073
:10185000FFF794FB02463B69D31A022B01D90323FD
:1018600084E1364B1B6803F00203002BF0D17B6848
:101870001B6803F00803002B30D07B685B69002BEA
:1018800016D0304B01221A60FFF778FB386108E070
:10189000FFF774FB02463B69D31A022B01D90323DD
:1018A00064E1264B5B6F03F00203002BF0D015E0E0
:1018B000244B00221A60FFF761FB386108E0FFF754
:1018C0005DFB02463B69D31A022B01D903234DE18C
:1018D0001A4B5B6F03F00203002BF0D17B681B688F
:1018E00003F00403002B00F0A0800023FB75134BD2
:1018F0001B6C03F08053002B0FD10023BB600F4BF8
:101900001B6C0E4A43F0805313640C4B1B6C03F0AA
:101910008053BB60BB680123FB750B4B1B6803F452
:101920008073002B21D1084B1B68074A43F4807356
:101930001360FFF723FB386111E000BF003802405D
:1019400000004742800E474200700040FFF716FB40
:1019500002463B69D31A022B01D9032306E1854BCA
:101960001B6803F48073002BF0D07B689B68012B0D
:1019700006D1814B1B6F804A43F0010313671CE0C3
:101980007B689B68052B0CD17B4B1B6F7A4A43F01D
:1019900004031367784B1B6F774A43F00103136707
:1019A0000BE0754B1B6F744A23F001031367724BF6
:1019B0001B6F714A23F0040313677B689B68002B3D
:1019C00015D0FFF7DBFA38610AE0FFF7D7FA0246D5
:1019D0003B69D31A41F28832934201D90323C5E00F
:1019E000654B1B6F03F00203002BEED014E0FFF7F2
:1019F000C5FA38610AE0FFF7C1FA02463B69D31A1B
:101A000041F28832934201D90323AFE05A4B1B6F56
:101A100003F00203002BEED1FB7D012B05D1564BC9
:101A20001B6C554A23F0805313647B689B69002B21
:101A300000F09B80504B9B6803F00C03082B5CD09C
:101A40007B689B69022B41D14C4B00221A60FFF747
:101A500095FA386108E0FFF791FA02463B69D31A1C
:101A6000022B01D9032381E0434B1B6803F0007371
:101A7000002BF0D17B68DA697B681B6A1A437B68AC
:101A80005B6A9B011A437B689B6A5B08013B1B04F2
:101A90001A437B68DB6A1B06374913434B60374B9D
:101AA00001221A60FFF76AFA386108E0FFF766FA68
:101AB00002463B69D31A022B01D9032356E02E4B71
:101AC0001B6803F00073002BF0D04EE02B4B00227C
:101AD0001A60FFF753FA386108E0FFF74FFA024641
:101AE0003B69D31A022B01D903233FE0224B1B6829
:101AF00003F00073002BF0D137E07B689B69012B6A
:101B000001D1012332E01C4B5B68FB607B689B6961
:101B1000012B28D0FB6803F480027B68DB699A42C2
:101B200021D1FB6803F03F027B681B6A9A421AD1FD
:101B3000FA6847F6C07313407A68526A920193427A
:101B400011D1FB6803F440327B689B6A5B08013B60
:101B50001B049A4207D1FB6803F070627B68DB6A62
:101B60001B069A4201D0012300E0002318461837D3
:101B7000BD4680BD00700040003802406000474212
:101B800080B584B000AF786039607B68002B01D1EC
:101B90000123CCE0684B1B6803F007033A689A42C4
:101BA0000CD9654B3A68D2B21A70634B1B6803F0CC
:101BB00007033A689A4201D00123B8E07B681B68AA
:101BC00003F00203002B20D07B681B6803F00403A2
:101BD000002B05D0594B9B68584A43F4E05393605F
:101BE0007B681B6803F00803002B05D0534B9B68F0
:101BF000524A43F460439360504B9B6823F0F002D9
:101C00007B689B684D4913438B607B681B6803F0BE
:101C10000103002B44D07B685B68012B07D1474B45
:101C20001B6803F40033002B19D101237FE07B688C
:101C30005B68022B03D07B685B68032B07D13F4BAB
:101C40001B6803F00073002B09D101236FE03B4BAD
:101C50001B6803F00203002B01D1012367E0374B1F
:101C60009B6823F003027B685B68344913438B60F5
:101C7000FFF784F9F8600AE0FFF780F90246FB6895
:101C8000D31A41F28832934201D903234FE02B4B00
:101C90009B6803F00C027B685B689B009A42EBD167
:101CA000254B1B6803F007033A689A420CD2224B7B
:101CB0003A68D2B21A70204B1B6803F007033A68E7
:101CC0009A4201D0012332E07B681B6803F00403D1
:101CD000002B08D0194B9B6823F4E0527B68DB682B
:101CE000164913438B607B681B6803F00803002BC5
:101CF00009D0124B9B6823F460427B681B69DB00B0
:101D00000E4913438B6000F021F802460B4B9B6891
:101D10001B0903F00F030A49CB5C22FA03F3094ABB
:101D20001360094B1B681846FFF7E4F800231846B8
:101D30001037BD4680BD00BF003C02400038024065
:101D40009C7D00080800002000000020B0B584B091
:101D500000AF002179600021F96000213960002185
:101D6000B9605249896801F00C0108290DD0082991
:101D700000F29480002902D0042903D08EE04C4B5D
:101D8000BB608EE04B4BBB608BE04849496801F07B
:101D90003F0179604549496801F48001002924D058
:101DA00042494968890908464FF0000140F2FF1492
:101DB0004FF0000500EA040201EA05033D4901FB7A
:101DC00003F0002101FB02F144183A49A2FB010192
:101DD000631819467B681A464FF00003FEF7ECFEC5
:101DE00002460B461346FB604AE0304B5B689B099A
:101DF0001A464FF0000340F2FF104FF0000102EAD4
:101E0000000403EA0105204629464FF000024FF086
:101E100000034B0143EAD063420110461946001B00
:101E200061EB05014FF000024FF000038B0143EA24
:101E300090638201121A63EB01034FF000004FF030
:101E40000001D90041EA5271D00002460B46121936
:101E500045EB03034FF000004FF00001990241EA07
:101E60009251900202460B46104619467B681A466C
:101E70004FF00003FEF7A0FE02460B461346FB6040
:101E80000A4B5B681B0C03F0030301335B003B60F0
:101E9000FA683B68B2FBF3F3BB6002E0044BBB6043
:101EA00000BFBB6818461037BD46B0BD00380240C1
:101EB0000024F40040787D0180B400AF034B1B6820
:101EC0001846BD465DF8047B704700BF080000203F
:101ED00080B500AFFFF7F0FF0246054B9B689B0AF9
:101EE00003F007030349CB5C22FA03F3184680BDD5
:101EF00000380240AC7D000880B500AFFFF7DCFF82
:101F00000246054B9B685B0B03F007030349CB5C60
:101F100022FA03F3184680BD00380240AC7D000869
:101F200080B582B000AF78607B68002B01D10123BF
:101F30007BE07B685B6A002B08D17B685B68B3F54C
:101F4000827F09D07B680022DA6105E07B6800228D
:101F50001A617B6800225A617B6800229A627B6862
:101F600093F85130DBB2002B06D17B68002283F856
:101F70005020786802F03CFD7B68022283F85120F3
:101F80007B681B681A687B681B6822F040021A6035
:101F90007B685B6803F482727B689B6803F404438C
:101FA0001A437B68DB6803F400631A437B681B6990
:101FB00003F002031A437B685B6903F001031A43D1
:101FC0007B689B6903F400731A437B68DB6903F049
:101FD00038031A437B681B6A03F0800342EA03015B
:101FE0007B689B6A03F400527B681B680A431A6093
:101FF0007B689B691B0C03F004017B685B6A03F040
:1020000010027B681B680A435A607B681B68DA69A8
:102010007B681B6822F40062DA617B6800225A65E3
:102020007B68012283F85120002318460837BD46FB
:1020300080BD80B58CB000AFF860B9607A607B80FD
:102040000123FB62002387F82B30FB6893F85030A4
:10205000012B01D102238AE1FB68012283F8502081
:10206000FEF78CFF7862FB6893F8513087F82330D5
:10207000FB685B68FB617B887B8397F82330012BCF
:102080000FD0FB69B3F5827F07D1FB689B68002BFB
:1020900003D197F82330042B03D0022387F82B3089
:1020A0005BE1BB68002B05D07B68002B02D07B88EE
:1020B000002B03D1012387F82B304EE1FB6893F806
:1020C0005130DBB2042B03D0FB68052283F851208A
:1020D000FB6800225A65FB687A689A63FB687A8815
:1020E000DA87FB687A889A87FB68BA681A63FB68A4
:1020F0007A88DA86FB687A889A86FB6800221A64F6
:10210000FB6800225A64FB681B681B6803F04003ED
:10211000402B07D0FB681B681A68FB681B6842F0FD
:1021200040021A60FB68DB68B3F5006F78D1FB688A
:102130005B68002B02D07B8B012B66D1FB681B6B8D
:102140001A88FB681B68DA60FB681B6B9A1CFB68CB
:102150001A63FB68DB8E9BB2013B9AB2FB68DA869E
:1021600053E0FB681B689B6803F00203022B1BD142
:10217000FB68DB8E9BB2002B16D0FB6A012B13D1C0
:10218000FB681B6B1A88FB681B68DA60FB681B6BBB
:102190009A1CFB681A63FB68DB8E9BB2013B9AB208
:1021A000FB68DA860023FB62FB681B689B6803F010
:1021B0000103012B19D1FB68DB8F9BB2002B14D0DC
:1021C000FB681B68DA68FB689B6B92B21A80FB683D
:1021D0009B6B9A1CFB689A63FB68DB8F9BB2013B8D
:1021E0009AB2FB68DA870123FB62FEF7C7FE02465C
:1021F0007B6AD31ABA6B9A4207D8BB6BB3F1FF3F25
:1022000003D0032387F82B30A7E0FB68DB8E9BB25B
:10221000002BA6D1FB68DB8F9BB2002BA1D17CE009
:10222000FB685B68002B02D07B8B012B6BD1FB68BA
:102230001A6BFB681B680C3312781A70FB681B6BF7
:102240005A1CFB681A63FB68DB8E9BB2013B9AB297
:10225000FB68DA8657E0FB681B689B6803F00203A3
:10226000022B1CD1FB68DB8E9BB2002B17D0FB6AC4
:10227000012B14D1FB681A6BFB681B680C331278B6
:102280001A70FB681B6B5A1CFB681A63FB68DB8EB9
:102290009BB2013B9AB2FB68DA860023FB62FB68C3
:1022A0001B689B6803F00103012B19D1FB68DB8FCE
:1022B0009BB2002B14D0FB681B68DA68FB689B6B31
:1022C000D2B21A70FB689B6B5A1CFB689A63FB685E
:1022D000DB8F9BB2013B9AB2FB68DA870123FB627A
:1022E000FEF74CFE02467B6AD31ABA6B9A4203D8B9
:1022F000BB6BB3F1FF3F02D1BB6B002B03D10323B8
:1023000087F82B3029E0FB68DB8E9BB2002BA2D133
:10231000FB68DB8F9BB2002B9DD17A6AB96BF868A2
:1023200000F0B2F80346002B06D0012387F82B30CB
:10233000FB6820225A6510E0FB689B68002B0BD1DC
:1023400000237B61FB681B68DB687B61FB681B68A3
:102350009B687B617B6900E000BFFB68012283F81A
:102360005120FB68002283F8502097F82B30184644
:102370003037BD4680BD000080B588B000AFF86042
:10238000B9603B601346FB71FEF7F8FD0246BB6A7D
:102390009B1A3A681344FB61FEF7F0FDB861394BB4
:1023A0001B685B011B0DFA6902FB03F37B6154E0C0
:1023B0003B68B3F1FF3F50D0FEF7E0FD0246BB693A
:1023C000D31AFA699A4202D9FB69002B3DD1FB6806
:1023D0001B685A68FB681B6822F0E0025A60FB68C1
:1023E0005B68B3F5827F11D1FB689B68B3F5004F42
:1023F00004D0FB689B68B3F5806F07D1FB681B684E
:102400001A68FB681B6822F040021A60FB689B6A2E
:10241000B3F5005F0FD1FB681B681A68FB681B6887
:1024200022F400521A60FB681B681A68FB681B687C
:1024300042F400521A60FB68012283F85120FB68C5
:10244000002283F85020032317E07B69002B01D181
:102450000023FB617B69013B7B61FB681B689A6819
:10246000BB681340BA689A420CBF01230023DBB259
:102470001A46FB799A429BD1002318462037BD4665
:1024800080BD00BF0800002080B588B002AFF860B2
:10249000B9607A601B4B1B681B4AA2FB03235B0DD0
:1024A0004FF47A7202FB03F37B61FB685B68B3F560
:1024B000827F12D17B680093BB6800228021F8687C
:1024C000FFF75AFF0346002B16D0FB685B6D43F005
:1024D0002002FB685A6503230FE07B69002B0AD0BA
:1024E0007B69013B7B61FB681B689B6803F0800391
:1024F000802BF2D000E000BF002318461837BD46FD
:1025000080BD00BF08000020819F5E1680B582B0AC
:1025100000AF78607B68002B01D1012341E07B682C
:1025200093F83D30DBB2002B06D17B68002283F8A4
:102530003C20786802F0A4FA7B68022283F83D20F0
:102540007B681A687B6804331946104600F0A0F9CE
:102550007B68012283F846207B68012283F83E20B5
:102560007B68012283F83F207B68012283F84020AA
:102570007B68012283F841207B68012283F8422096
:102580007B68012283F843207B68012283F8442082
:102590007B68012283F845207B68012283F83D2077
:1025A000002318460837BD4680BD000080B584B0C2
:1025B00000AF786039603B68002B09D17B6893F8E5
:1025C0003E30DBB2012B14BF01230023DBB222E03B
:1025D0003B68042B09D17B6893F83F30DBB2012BB9
:1025E00014BF01230023DBB215E03B68082B09D19F
:1025F0007B6893F84030DBB2012B14BF012300232A
:10260000DBB208E07B6893F84130DBB2012B14BFEA
:1026100001230023DBB2002B01D0012368E03B68DB
:10262000002B04D17B68022283F83E2013E03B6834
:10263000042B04D17B68022283F83F200BE03B6827
:10264000082B04D17B68022283F8402003E07B68DA
:10265000022283F841207B681B68012239681846F2
:1026600000F022FB7B681B68234A934207D17B68FA
:102670001B685A6C7B681B6842F400425A647B6892
:102680001B681D4A934218D07B681B68B3F1804FCA
:1026900013D07B681B68194A93420ED07B681B6875
:1026A000174A934209D07B681B68164A934204D0AC
:1026B0007B681B68144A934211D17B681B689B6836
:1026C00003F00703FB60FB68062B10D07B681B68D8
:1026D0001A687B681B6842F001021A6007E07B6899
:1026E0001B681A687B681B6842F001021A600023AD
:1026F00018461037BD4680BD000001400004004070
:1027000000080040000C00400040014080B586B049
:1027100000AFF860B9607A600023FB75FB6893F83E
:102720003C30012B01D10223AEE0FB68012283F88B
:102730003C207B680C2B00F29F8001A252F823F012
:1027400075270008792800087928000879280008EA
:10275000B52700087928000879280008792800089A
:10276000F727000879280008792800087928000848
:1027700037280008FB681B68B968184600F008F99C
:10278000FB681B689A69FB681B6842F008029A6143
:10279000FB681B689A69FB681B6822F004029A6157
:1027A000FB681B689969BB681A69FB681B680A4368
:1027B0009A6164E0FB681B68B968184600F04EF93E
:1027C000FB681B689A69FB681B6842F400629A61A7
:1027D000FB681B689A69FB681B6822F480629A6137
:1027E000FB681B689969BB681B691A02FB681B6858
:1027F0000A439A6143E0FB681B68B968184600F019
:1028000099F9FB681B68DA69FB681B6842F00802EB
:10281000DA61FB681B68DA69FB681B6822F0040256
:10282000DA61FB681B68D969BB681A69FB681B68B9
:102830000A43DA6123E0FB681B68B968184600F0B8
:10284000E3F9FB681B68DA69FB681B6842F4006205
:10285000DA61FB681B68DA69FB681B6822F4806236
:10286000DA61FB681B68D969BB681B691A02FB68DF
:102870001B680A43DA6102E00123FB7500BFFB68B5
:10288000002283F83C20FB7D18461837BD4680BDEA
:1028900080B485B000AF786039607B681B68FB60EE
:1028A0007B68344A93420FD07B68B3F1804F0BD0E2
:1028B0007B68314A934207D07B68304A934203D009
:1028C0007B682F4A934208D1FB6823F07003FB60BA
:1028D0003B685B68FA681343FB607B68254A934258
:1028E0001BD07B68B3F1804F17D07B68224A93429C
:1028F00013D07B68214A93420FD07B68204A9342D1
:102900000BD07B681F4A934207D07B681E4A9342D4
:1029100003D07B681D4A934208D1FB6823F44073BF
:10292000FB603B68DB68FA681343FB60FB6823F0DD
:1029300080023B685B691343FB607B68FA681A603E
:102940003B689A687B68DA623B681A687B689A62BF
:102950007B68084A934203D13B681A697B681A6313
:102960007B6801225A6100BF1437BD465DF8047BC5
:10297000704700BF00000140000400400008004014
:10298000000C00400040014000440140004801406C
:1029900080B487B000AF786039607B681B6A23F031
:1029A00001027B681A627B681B6A7B617B685B68DB
:1029B0003B617B689B69FB60FB6823F07003FB60F5
:1029C000FB6823F00303FB603B681B68FA68134352
:1029D000FB607B6923F002037B613B689B687A693B
:1029E00013437B617B681C4A93420CD17B6923F0C3
:1029F00008037B613B68DB687A6913437B617B6911
:102A000023F004037B617B68134A934211D13B6935
:102A100023F480733B613B6923F400733B613B68A3
:102A20005B693A6913433B613B689B693A691343AD
:102A30003B617B683A695A607B68FA689A613B68D7
:102A40005A687B685A637B687A691A6200BF1C37D0
:102A5000BD465DF8047B70470000014080B487B03C
:102A600000AF786039607B681B6A23F010027B68D6
:102A70001A627B681B6A7B617B685B683B617B6871
:102A80009B69FB60FB6823F4E043FB60FB6823F475
:102A90004073FB603B681B681B02FA681343FB60D2
:102AA0007B6923F020037B613B689B681B017A698B
:102AB00013437B617B681E4A93420DD17B6923F0EF
:102AC00080037B613B68DB681B017A6913437B6190
:102AD0007B6923F040037B617B68154A934213D1E5
:102AE0003B6923F480633B613B6923F400633B61F2
:102AF0003B685B699B003A6913433B613B689B6998
:102B00009B003A6913433B617B683A695A607B6872
:102B1000FA689A613B685A687B689A637B687A694D
:102B20001A6200BF1C37BD465DF8047B704700BFCA
:102B30000000014080B487B000AF786039607B68E6
:102B40001B6A23F480727B681A627B681B6A7B6154
:102B50007B685B683B617B68DB69FB60FB6823F03B
:102B60007003FB60FB6823F00303FB603B681B689A
:102B7000FA681343FB607B6923F400737B613B6855
:102B80009B681B027A6913437B617B681D4A9342F1
:102B90000DD17B6923F400637B613B68DB681B021A
:102BA0007A6913437B617B6923F480637B617B6873
:102BB000144A934213D13B6923F480533B613B6930
:102BC00023F400533B613B685B691B013A69134383
:102BD0003B613B689B691B013A6913433B617B681E
:102BE0003A695A607B68FA68DA613B685A687B68C0
:102BF000DA637B687A691A6200BF1C37BD465DF8EC
:102C0000047B70470000014080B487B000AF78605B
:102C100039607B681B6A23F480527B681A627B6888
:102C20001B6A3B617B685B687B617B68DB69FB607F
:102C3000FB6823F4E043FB60FB6823F44073FB6014
:102C40003B681B681B02FA681343FB603B6923F473
:102C500000533B613B689B681B033A6913433B612C
:102C60007B68104A934209D17B6923F480437B61DE
:102C70003B685B699B017A6913437B617B687A6976
:102C80005A607B68FA68DA613B685A687B681A6444
:102C90007B683A691A6200BF1C37BD465DF8047B49
:102CA000704700BF0000014080B487B000AFF860FB
:102CB000B9607A60BB6803F01F03012202FA03F3D4
:102CC0007B61FB681A6A7B69DB431A40FB681A6206
:102CD000FB681A6ABB6803F01F03796801FA03F303
:102CE0001A43FB681A6200BF1C37BD465DF8047BBF
:102CF0007047000080B485B000AF786039607B68B1
:102D000093F83C30012B01D1022350E07B68012273
:102D100083F83C207B68022283F83D207B681B6897
:102D20005B68FB607B681B689B68BB60FB6823F08B
:102D30007003FB603B681B68FA681343FB607B68A9
:102D40001B68FA685A607B681B681C4A934218D05B
:102D50007B681B68B3F1804F13D07B681B68184AEF
:102D600093420ED07B681B68164A934209D07B6859
:102D70001B68154A934204D07B681B68134A934230
:102D80000CD1BB6823F08003BB603B685B68BA680A
:102D90001343BB607B681B68BA689A607B6801223A
:102DA00083F83D207B68002283F83C2000231846EE
:102DB0001437BD465DF8047B704700BF000001403A
:102DC0000004004000080040000C004000400140AA
:102DD00080B582B000AF78607B68002B01D1012301
:102DE0003FE07B6893F83D30DBB2002B06D17B6877
:102DF000002283F83C20786801F09AFE7B68242248
:102E000083F83D207B681B68DA687B681B6822F4C6
:102E10000052DA60786800F01DFE7B681B681A6952
:102E20007B681B6822F490421A617B681B685A69B0
:102E30007B681B6822F02A025A617B681B68DA688B
:102E40007B681B6842F40052DA607B6800221A64D7
:102E50007B68202283F83D207B68202283F83E2077
:102E6000002318460837BD4680BD80B58AB002AF42
:102E7000F860B9603B601346FB8000237B61FB6810
:102E800093F83D30DBB2202B7CD1BB68002B02D005
:102E9000FB88002B01D1012375E0FB6893F83C30DF
:102EA000012B01D102236EE0FB68012283F83C2054
:102EB000FB6800221A64FB68212283F83D20FEF79C
:102EC0005DF87861FB68FA889A84FB68FA88DA848E
:102ED000FB689B68B3F5805F08D1FB681B69002B1A
:102EE00004D10023FB61BB68BB6103E0BB68FB61ED
:102EF0000023BB61FB68002283F83C202AE03B688A
:102F000000937B6900228021F86800F09BFB034658
:102F1000002B01D0032336E0FB69002B0BD1BB69EA
:102F20001B881A46FB681B68C2F308025A60BB691B
:102F30000233BB6107E0FB691A78FB681B685A60C3
:102F4000FB690133FB61FB68DB8C9BB2013B9AB2EE
:102F5000FB68DA84FB68DB8C9BB2002BCFD13B682B
:102F600000937B6900224021F86800F06BFB034668
:102F7000002B01D0032306E0FB68202283F83D20CC
:102F8000002300E0022318462037BD4680BD80B5EF
:102F90008AB002AFF860B9603B601346FB80002343
:102FA0007B61FB6893F83E30DBB2202B40F08C80D5
:102FB000BB68002B02D0FB88002B01D1012384E0E9
:102FC000FB6893F83C30012B01D102237DE0FB68C4
:102FD000012283F83C20FB6800221A64FB6822224D
:102FE00083F83E20FB6800221A63FDF7C7FF786173
:102FF000FB68FA889A85FB68FA88DA85FB689B6823
:10300000B3F5805F08D1FB681B69002B04D1002356
:10301000FB61BB68BB6103E0BB68FB610023BB6174
:10302000FB68002283F83C2043E03B6800937B6907
:1030300000222021F86800F005FB0346002B01D098
:10304000032342E0FB69002B0CD1FB681B685B6823
:103050009BB2C3F308039AB2BB691A80BB690233FF
:10306000BB611FE0FB689B68B3F5805F07D0FB681E
:103070009B68002B0AD1FB681B69002B06D1FB68FB
:103080001B685B68DAB2FB691A7008E0FB681B68B2
:103090005B68DBB203F07F03DAB2FB691A70FB698D
:1030A0000133FB61FB68DB8D9BB2013B9AB2FB688D
:1030B000DA85FB68DB8D9BB2002BB6D1FB68202242
:1030C00083F83E20002300E0022318462037BD4647
:1030D00080BD000080B5BAB000AF78607B681B6827
:1030E0001B68C7F8E4307B681B68DB68C7F8E03012
:1030F0007B681B685B69C7F8DC300023C7F8D830F1
:103100000023C7F8D430D7F8E43003F00F03C7F832
:10311000D830D7F8D830002B0FD1D7F8E43003F0EF
:103120002003002B09D0D7F8E03003F02003002B58
:1031300003D0786800F0D3FB56E2D7F8D830002BE4
:1031400000F0DE80D7F8DC3003F00103002B06D15D
:10315000D7F8E03003F49073002B00F0D180D7F85B
:10316000E43003F00103002B0BD0D7F8E03003F478
:103170008073002B05D07B681B6C43F001027B68D9
:103180001A64D7F8E43003F00403002B0BD0D7F80F
:10319000DC3003F00103002B05D07B681B6C43F08F
:1031A00002027B681A64D7F8E43003F00203002BB4
:1031B0000BD0D7F8DC3003F00103002B05D07B687F
:1031C0001B6C43F004027B681A64D7F8E43003F008
:1031D0000803002B11D0D7F8E03003F02003002BB8
:1031E00005D1D7F8DC3003F00103002B05D07B6854
:1031F0001B6C43F008027B681A647B681B6C002B15
:1032000000F0ED81D7F8E43003F02003002B08D064
:10321000D7F8E03003F02003002B02D0786800F0EC
:103220005EFB7B681B685B6903F04003402B0CBFAF
:1032300001230023DBB2C7F8D4307B681B6C03F09A
:103240000803002B03D1D7F8D430002B4FD0786877
:1032500000F066FA7B681B685B6903F04003402B53
:1032600041D17B681B681433C7F89C30D7F89C3079
:1032700053E8003FC7F89830D7F8983023F0400360
:10328000C7F8D0307B681B681433D7F8D020C7F854
:10329000A820C7F8A430D7F8A410D7F8A82041E890
:1032A0000023C7F8A030D7F8A030002BD9D17B6815
:1032B0009B6B002B13D07B689B6B7D4A1A657B68E8
:1032C0009B6B1846FEF70BF80346002B16D07B6865
:1032D0009B6B1B6D7A68926B104698470EE078687E
:1032E00000F09AF90AE0786800F096F906E078684C
:1032F00000F092F97B6800221A6470E100BF6EE171
:103300007B681B6B012B40F04A81D7F8E43003F057
:103310001003002B00F04381D7F8E03003F01003D6
:10332000002B00F03C810023BB607B681B681B689E
:10333000BB607B681B685B68BB60BB687B681B68A5
:103340005B6903F04003402B40F0B4807B689B6BCB
:103350001B685B68A7F8BE30B7F8BE30002B00F0E2
:1033600040817B689B8DB7F8BE209A4280F03981FE
:103370007B68B7F8BE20DA857B689B6BDB69B3F5A9
:10338000807F00F088807B681B680C33C7F888302A
:10339000D7F8883053E8003FC7F88430D7F8843036
:1033A00023F48073C7F8B8307B681B680C33D7F8F8
:1033B000B820C7F89420C7F89030D7F89010D7F805
:1033C000942041E80023C7F88C30D7F88C30002BCC
:1033D000D9D17B681B6814337B677B6F53E8003F50
:1033E0003B673B6F23F00103C7F8B4307B681B6871
:1033F0001433D7F8B420C7F88020FB67F96FD7F8EB
:10340000802041E80023BB67BB6F002BE1D17B68C4
:103410001B6814333B663B6E53E8003FFB65FB6D56
:1034200023F04003C7F8B0307B681B681433D7F82B
:10343000B020FA66BB66B96EFA6E41E800237B667F
:103440007B6E002BE3D17B68202283F83E207B68D3
:1034500000221A637B681B680C33FB64FB6C53E827
:10346000003FBB64BB6C23F01003C7F8AC307B6833
:103470001B680C33D7F8AC20BA657B65796DBA6DE3
:1034800041E800233B653B6D002BE3D17B689B6BE0
:103490001846FDF7B4FE7B689A8D7B68DB8D9BB286
:1034A000D31A9BB21946786800F0C0F899E000BFC3
:1034B000E73700087B689A8D7B68DB8D9BB2D31A57
:1034C000A7F8CE307B68DB8D9BB2002B00F08B80A1
:1034D000B7F8CE30002B00F086807B681B680C3379
:1034E000BB63BB6B53E8003F7B637B6B23F4907340
:1034F000C7F8C8307B681B680C33D7F8C8207A64DB
:103500003B64396C7A6C41E80023FB63FB6B002B56
:10351000E3D17B681B6814337B627B6A53E8003F0E
:103520003B623B6A23F00103C7F8C4307B681B6829
:103530001433D7F8C4203A63FB62F96A3A6B41E866
:103540000023BB62BB6A002BE3D17B68202283F897
:103550003E207B6800221A637B681B680C333B614A
:103560003B6953E8003FFB60FB6823F01003C7F89A
:10357000C0307B681B680C33D7F8C020FA61BB6190
:10358000B969FA6941E800237B617B69002BE3D1CB
:10359000B7F8CE301946786800F048F823E0D7F83D
:1035A000E43003F08003002B09D0D7F8E03003F0BB
:1035B0008003002B03D0786800F029F914E0D7F8D5
:1035C000E43003F04003002B0ED0D7F8E03003F0D6
:1035D0004003002B08D0786800F069F904E000BFD0
:1035E00002E000BF00E000BFE837BD4680BD00BF7D
:1035F00080B483B000AF786000BF0C37BD465DF883
:10360000047B704780B483B000AF786000BF0C3794
:10361000BD465DF8047B704780B483B000AF78602E
:1036200000BF0C37BD465DF8047B704780B483B0A3
:1036300000AF78600B467B8000BF0C37BD465DF85D
:10364000047B704780B590B000AFF860B9603B6014
:103650001346FB7150E0BB6CB3F1FF3F4CD0BB6C29
:10366000002B07D0FDF78AFC02463B68D31ABA6CE0
:103670009A4241D2FB681B680C33BB62BB6A53E8B9
:10368000003F7B627B6A23F4D073FB63FB681B689B
:103690000C33FA6B7A633B63396B7A6B41E8002336
:1036A000FB62FB6A002BE5D1FB681B6814337B616E
:1036B0007B6953E8003F3B613B6923F00103BB6337
:1036C000FB681B681433BA6B3A62FB61F9693A6AAA
:1036D00041E80023BB61BB69002BE5D1FB682022D8
:1036E00083F83D20FB68202283F83E20FB680022FF
:1036F00083F83C2003230FE0FB681B681A68BB6853
:103700001340BA689A420CBF01230023DBB21A4669
:10371000FB799A429FD0002318464037BD4680BDB2
:1037200080B495B000AF78607B681B680C337B6316
:103730007B6B53E8003F3B633B6B23F49073FB646C
:103740007B681B680C33FA6C3A64FB63F96B3A6C68
:1037500041E80023BB63BB6B002BE5D17B681B6892
:1037600014333B623B6A53E8003FFB61FB6923F083
:103770000103BB647B681B681433BA6CFA62BB62DA
:10378000B96AFA6A41E800237B627B6A002BE5D1C3
:103790007B681B6B012B19D17B681B680C33FB60AA
:1037A000FB6853E8003FBB60BB6823F010037B64F9
:1037B0007B681B680C337A6CBA617B617969BA6982
:1037C00041E800233B613B69002BE5D17B68202267
:1037D00083F83E207B6800221A6300BF5437BD4641
:1037E0005DF8047B704780B584B000AF78607B687B
:1037F0009B6BFB60FB680022DA85FB680022DA84A1
:10380000F868FFF709FF00BF1037BD4680BD80B4E0
:1038100085B000AF78607B6893F83D30DBB2212B38
:103820003ED17B689B68B3F5805F14D17B681B69D0
:10383000002B10D17B681B6AFB60FB681B881A4653
:103840007B681B68C2F308025A607B681B6A9A1C7B
:103850007B681A6208E07B681B6A591C7A681162EF
:103860001A787B681B685A607B68DB8C9BB2013BD3
:103870009BB27A681946D184002B0FD17B681B68F4
:10388000DA687B681B6822F08002DA607B681B685C
:10389000DA687B681B6842F04002DA60002300E0CF
:1038A000022318461437BD465DF8047B704780B587
:1038B00082B000AF78607B681B68DA687B681B6841
:1038C00022F04002DA607B68202283F83D2078688D
:1038D000FFF78EFE002318460837BD4680BD80B531
:1038E0008CB000AF78607B6893F83E30DBB2222B5F
:1038F00040F0AB807B689B68B3F5805F17D17B6835
:103900001B69002B13D10023FB627B689B6ABB629F
:103910007B681B685B689BB2C3F308039AB2BB6AFF
:103920001A807B689B6A9A1C7B689A6226E07B6897
:103930009B6AFB620023BB627B689B68B3F5805F78
:1039400007D07B689B68002B0AD17B681B69002B22
:1039500006D17B681B685B68DAB2FB6A1A7008E004
:103960007B681B685B68DBB203F07F03DAB2FB6A3B
:103970001A707B689B6A5A1C7B689A627B68DB8D35
:103980009BB2013B9BB27A681946D185002B5AD174
:103990007B681B68DA687B681B6822F02002DA60AB
:1039A0007B681B68DA687B681B6822F48072DA60C7
:1039B0007B681B685A697B681B6822F001025A61A8
:1039C0007B68202283F83E207B681B6B012B35D15E
:1039D0007B6800221A637B681B680C337B617B6900
:1039E00053E8003F3B613B6923F010037B627B6837
:1039F0001B680C337A6A3A62FB61F9693A6A41E8FA
:103A00000023BB61BB69002BE5D17B681B681B6889
:103A100003F01003102B0AD10023FB607B681B68A6
:103A20001B68FB607B681B685B68FB60FB687B68EE
:103A30009B8D19467868FFF7F9FD02E07868FFF77B
:103A4000E1FD002302E0002300E0022318463037A6
:103A5000BD4680BD2DE9F04F9FB000AFF866FB6E0C
:103A60001B681B6923F44050FB6ED968FB6E1A6813
:103A700040EA01031361FB6E9A68FB6E1B691A43EF
:103A8000FB6E5B691A43FB6EDB6913433B67FB6E9E
:103A90001B68DB6823F4164121F00C01FB6E1A68E9
:103AA0003B6F0B43D360FB6E1B685B6923F4407074
:103AB000FB6E9969FB6E1A6840EA01035361FB6E65
:103AC0001A68C54B9A4204D0FB6E1A68C34B9A42DF
:103AD00003D1FEF711FA786702E0FEF7F9F978678B
:103AE000FB6EDB69B3F5004F40F0B6807B6F1C4680
:103AF0004FF0000522462B46911839645B417B64E8
:103B0000D7E91023121945EB03034FF000004FF0E3
:103B10000001D90041EA5271D00002460B4611194A
:103B200039666B417B66FB6E5B681A464FF000039B
:103B30009118B9635B41FB63D7E90E23D7E91801FC
:103B4000FDF73AF802460B46A54BA3FB02235B099F
:103B50001E017B6F1C464FF0000522462B46911834
:103B600039635B417B63D7E90C23121945EB0303EF
:103B70004FF000004FF00001D90041EA5271D0002F
:103B800002460B461119B9656B41FB65FB6E5B681C
:103B90001A464FF000039118B9625B41FB62D7E906
:103BA0000A23D7E91601FDF707F802460B468C4BAE
:103BB000A3FB02135B09642101FB03F3D31ADB00AF
:103BC0003233874AA2FB03235B095B0003F4F873DB
:103BD0001E447B6F18464FF0000102460B469418B6
:103BE0003C625B417B62D7E90823121841EB030377
:103BF0004FF000044FF00005DD0045EA5275D40097
:103C000022462B4614183C654B417B65FB6E5B6876
:103C10001A464FF000039118B9615B41FB61D7E987
:103C20000623D7E91401FCF7C7FF02460B466C4B8D
:103C3000A3FB02135B09642101FB03F3D31ADB002E
:103C40003233674AA2FB03235B0903F00702FB6ED2
:103C50001B6832449A60B9E07B6F1C464FF0000548
:103C600022462B46911839615B417B61D7E90423D9
:103C7000121945EB03034FF000004FF00001D9008B
:103C800041EA5271D00002460B4612EB040843EBA6
:103C90000509FB6E5B6818464FF000014FF000020B
:103CA0004FF000038B0043EA907382004046494680
:103CB000FCF782FF02460B46494BA3FB02235B093C
:103CC0001E017B6F18464FF0000102460B46941808
:103CD000BC605B41FB60D7E90223121841EB030390
:103CE0004FF000044FF00005DD0045EA5275D400A6
:103CF00022462B461418BC644B41FB64FB6E5B6888
:103D000018464FF000014FF000024FF000038B0007
:103D100043EA90738200D7E91201FCF74DFF024697
:103D20000B462F4BA3FB02135B09642101FB03F33A
:103D3000D31A1B0132332A4AA2FB03235B0903F087
:103D4000F0031E447B6F18464FF0000102460B46FD
:103D500094183C605B417B60D7E90023121841EB6B
:103D600003034FF000044FF00005DD0045EA5275F3
:103D7000D40022462B4612EB000A43EB010BFB6EEC
:103D80005B6818464FF000014FF000024FF000034F
:103D90008B0043EA9073820050465946FCF70CFFB3
:103DA00002460B460E4BA3FB02135B09642101FB89
:103DB00003F3D31A1B013233094AA2FB03235B0925
:103DC00003F00F02FB6E1B6832449A6000BF7C3721
:103DD000BD46BDE8F08F00BF001001400014014057
:103DE0001F85EB5180B59CB000AF0346FB71FA799B
:103DF00007F10C031449184601F0CAFC01224FF4E4
:103E000000611248FDF712FC00BF07F10C031846D1
:103E1000FCF7E6F903469AB207F10C014FF4805320
:103E20000B48FFF722F80346022BEED06420FDF783
:103E3000B1F800224FF400610448FDF7F7FB00BF22
:103E40007037BD4680BD00BF007C00080000024006
:103E500078020020B0B588B000AF144B3C1D1D4661
:103E60000FCD0FC495E8070084E8070001224FF446
:103E700000610F48FDF7DAFB3B1D1846FCF7B0F96F
:103E800003469AB2391D4FF480530A48FEF7EDFFFE
:103E90006420FDF77FF800224FF400610448FDF72D
:103EA000C5FB00BF2037BD46B0BD00BF387C000851
:103EB000000002407802002080B586B002AF0346C1
:103EC000FB710023FB7307F10F02F91D4FF48053C0
:103ED000009301230648FEF7ACF80346002B01D0FF
:103EE000FFF7B8FFFB7B18461037BD4680BD00BF0B
:103EF000BC02002080B582B000AF78600B46FB703A
:103F000013463B803B88012B04D9FB7863F03F03C9
:103F1000FB7003E0FB7863F07F03FB70002210214D
:103F20001048FDF783FBFB781846FFF7C5FF0CE050
:103F30000020FFF7C1FF03461A467B681A703B88D2
:103F4000013B3B807B6801337B603B88002BEFD1DA
:103F5000012210210348FDF769FB00BF0837BD4669
:103F600080BD00BF0000024080B582B000AF786025
:103F70000B46FB7013463B80012210211548FDF7CC
:103F800055FB3B88012B03D9FB7843F04003FB70C2
:103F9000002210210F48FDF749FBFB781846FFF778
:103FA0008BFF0AE07B681B781846FFF785FF3B888C
:103FB000013B3B807B6801337B603B88002BF1D168
:103FC000012210210348FDF731FB00BF0837BD4631
:103FD00080BD00BF0000024080B582B000AF00236A
:103FE000FB71FB1D01220F211846FFF783FFFB79B0
:103FF00018460837BD4680BD80B588B000AF7860F0
:104000000023FB77364BBB6107F10B030122202114
:104010001846FFF76FFF07F10C030122282118460D
:10402000FFF768FF07F10C0301330122292118462D
:10403000FFF760FF07F10C03023301222A21184623
:10404000FFF758FF07F10C03033301222B21184619
:10405000FFF750FF07F10C03043301222C2118460F
:10406000FFF748FF07F10C03053301222D21184605
:10407000FFF740FF0023FB7729E0FB7F5B00013364
:1040800007F12002134413F9143C1B02FA7F52007B
:1040900007F120010A4412F9142C134407EE903A58
:1040A000F8EEE77A97ED067A67EE277AC7ED057A9C
:1040B000FB7F5B007A681344D7ED057AFDEEE77A63
:1040C00017EE902A12B21A80FB7F0133FB77FB7F39
:1040D000022BD2D900BF00BF2037BD4680BD00BF34
:1040E0008FC2753D80B586B002AF3B1D00221A60BD
:1040F0009A800023FB813B1D1846FFF77DFFBB889C
:10410000BB81FB887B813B89FB81B7F90C20B7F928
:104110000A10B7F90E3000930B461149114801F00F
:1041200037FB01224FF400610F48FDF77FFA0D487D
:10413000FCF756F803469AB24FF4805309490B48EE
:10414000FEF793FE00224FF400610748FDF76EFA78
:104150006420FCF71FFF00BF1037BD4680BD00BFC5
:10416000547C0008F8010020000002407802002082
:1041700080B584B000AF0023FB710023BB71002326
:104180007B714FF47A70FCF705FFFFF725FF0346BC
:10419000FB73FB7B432B1CD11E4BBB6001224FF4F6
:1041A00000611D48FDF742FAB868FCF719F80346AC
:1041B0009AB24FF48053B9681848FEF756FE64204F
:1041C000FCF7E8FE00224FF400611348FDF72EFAD9
:1041D00003E0FB7B1846FFF705FE6023FB712023FD
:1041E000BB7103237B71BB1D012221211846FFF700
:1041F000BBFEFB1D012220211846FFF7B5FE7B1DEB
:10420000012223211846FFF7AFFE00BF1037BD463D
:1042100080BD00BF747C00080000024078020020CE
:1042200080B483B000AF0346FB80FB88022B05D12E
:104230000C4B1B6801330B4A13600DE0FB88042B09
:1042400005D1094B1B680133074A136004E0074B93
:104250001B680133054A136000BF0C37BD465DF88B
:10426000047B70475C020020600200206402002092
:1042700080B5B4B000AF786087ED000A0023BB6062
:1042800007F10C03C4220021184600F00FFE386825
:10429000FCF762F902460B4607F10800796801F065
:1042A00077FA01224FF400610F48FDF7BFF900BF14
:1042B00007F108031846FBF793FF03469AB207F18C
:1042C00008014FF480530948FEF7CFFD0346022B47
:1042D000EED000224FF400610348FDF7A7F900BFBC
:1042E000D037BD4680BD00BF0000024078020020EC
:1042F00080B582B000AFFCF7DBFD00F057F800F0AE
:1043000077F900F0BDF800F049F900F0EFF804216A
:104310002148FEF74BF90A23BB7100F0E9F900F0E0
:104320000BFA00F0B5FAFFF723FFBB7907EE903ADE
:10433000F8EE677AB0EE670A1848FFF799FF002396
:10434000FB7104E0FFF7CEFEFB790133FB71FA79D4
:10435000BB799A42F6D3BA79114B1B689A420BD8B3
:104360000F4B1B6807EE903AF8EE677AB0EE670ADB
:104370000C48FFF77DFF0AE0094B1B6807EE903AF7
:10438000F8EE677AB0EE670A0748FFF771FF044B53
:1043900000221A60C1E700BF14030020A47C0008BB
:1043A0005C020020D07C00080C7D000880B594B031
:1043B00000AF07F1200330220021184600F076FDFF
:1043C00007F10C0300221A605A609A60DA601A61E1
:1043D0000023BB60284B1B6C274A43F080531364B7
:1043E000254B1B6C03F08053BB60BB6800237B60D4
:1043F000224B1B6823F44043204A43F400431360DC
:104400001E4B1B6803F440437B607B6801233B62C7
:104410004FF480337B620223BB634FF48003FB6362
:1044200019233B64A8237B640223BB640423FB643D
:1044300007F120031846FDF72BF90346002B01D0A6
:1044400000F0A8FA0F23FB6002233B6100237B618D
:104450004FF48053BB610023FB6107F10C03022181
:104460001846FDF78DFB0346002B01D000F092FAB1
:1044700000BF5037BD4680BD00380240007000408C
:1044800080B500AF174B184A1A60164B4FF4827272
:104490005A60144B00229A60124B0022DA60114BD2
:1044A00002221A610F4B01225A610E4B4FF4007227
:1044B0009A610C4B0822DA610A4B00221A62094BFE
:1044C00000225A62074B00229A62064B0A22DA62E5
:1044D0000448FDF725FD0346002B01D000F05AFAF1
:1044E00000BF80BDBC0200200030014080B58AB012
:1044F00000AF07F1200300221A605A603B1D002222
:104500001A605A609A60DA601A615A619A61224BA5
:104510004FF080421A60204B40225A601E4B00220E
:104520009A601D4BFF22DA601B4B00221A611A4B66
:1045300000229A611848FDF7E9FF0346002B01D0DD
:1045400000F028FA00233B6200237B6207F120037E
:1045500019461148FEF7CEFB0346002B01D000F0B0
:1045600019FA60237B600023BB600023FB600023FB
:104570007B613B1D042219460748FEF7C7F8034636
:10458000002B01D000F006FA034800F099FA00BFB2
:104590002837BD4680BD00BF1403002080B500AFA2
:1045A000114B124A1A60104B4FF4E1325A600E4B15
:1045B00000229A600C4B0022DA600B4B00221A6139
:1045C000094B0C225A61084B00229A61064B0022CB
:1045D000DA610548FEF7FCFB0346002B01D000F032
:1045E000D9F900BF80BD00BF780200200010014053
:1045F00080B588B000AF07F10C0300221A605A6042
:104600009A60DA601A610023BB60364B1B6B354A37
:1046100043F080031363334B1B6B03F08003BB60D9
:10462000BB6800237B602F4B1B6B2E4A43F00103BA
:1046300013632C4B1B6B03F001037B607B6800232F
:104640003B60284B1B6B274A43F002031363254B47
:104650001B6B03F002033B603B68002241F6140130
:104660002148FCF7E3FF41F60403FB6001233B61B3
:1046700000237B610023BB6107F10C0319461A4834
:10468000FCF750FE1023FB6001233B6100237B619C
:104690000123BB6107F10C0319461348FCF742FEE6
:1046A0000623FB604FF488133B6100237B6107F115
:1046B0000C0319460D48FCF735FE002200210720A7
:1046C000FCF767FD0720FCF780FD00220021082091
:1046D000FCF75FFD0820FCF778FD00BF2037BD46E2
:1046E00080BD00BF003802400000024000040240CC
:1046F00080B500AF012204210E48FCF797FF01228C
:104700004FF480510B48FCF791FF4FF47A70FCF79F
:1047100041FC002204210748FCF788FF00224FF4E7
:1047200080510448FCF782FF4FF47A70FCF732FCAA
:1047300000BF80BD0000024080B584B000AF1023F0
:10474000FB710023FB6048E0FB68B22B16DDFB68C1
:10475000FF2B13DC012204214C48FCF767FF0122E8
:104760004FF480514948FCF761FF4FF08042FB68ED
:104770009363FB791846FCF70DFC2BE0FB68B22B2A
:10478000CCBF01230023DAB2FB68FF2BD4BF012387
:104790000023DBB25340DBB2002B13D000220421F4
:1047A0003A48FCF743FF00224FF480513748FCF7AA
:1047B0003DFF4FF08042FB689363FB791846FCF79E
:1047C000E9FB07E04FF08042FB689363FB791846F2
:1047D000FCF7E0FBFB680133FB60FB68FF2BB3DDFC
:1047E000FF23BB6048E0BB68B22B16DDBB68FF2B24
:1047F00013DC012204212548FCF718FF01224FF4A5
:1048000080512248FCF712FF4FF08042BB6893634F
:10481000FB791846FCF7BEFB2BE0BB68B22BCCBF84
:1048200001230023DAB2BB68FF2BD4BF012300238E
:10483000DBB25340DBB2002B13D00022042113481B
:10484000FCF7F4FE00224FF480511048FCF7EEFE16
:104850004FF08042BB689363FB791846FCF79AFBE4
:1048600007E04FF08042BB689363FB791846FCF782
:1048700091FBBB68013BBB60BB68002BB3DA0A202D
:10488000FCF788FB00BF1037BD4680BD000002402A
:1048900080B586B000AF3A4B3B613A4BFB603A4B78
:1048A000BB600023FB7501224FF400613748FCF721
:1048B000BDFE3869FBF794FC03469AB2642339695C
:1048C0003348FEF7D2FA4FF4FA60FCF763FB00229C
:1048D0004FF400612D48FCF7A9FE49E0391D64231F
:1048E00001222B48FEF753FB0346002B26D1012261
:1048F0004FF400612548FCF799FE391D642301221D
:104900002348FEF7B2FA4FF47A70FCF743FBB8681D
:10491000FBF766FC03469AB26423B9681C48FEF7AD
:10492000A4FA00224FF400611848FCF77FFE01232F
:10493000FB754FF4FA60FCF72DFB19E001224FF4F0
:1049400000611248FCF772FEF868FBF749FC034669
:104950009AB26423F9680E48FEF787FA00224FF4F2
:1049600000610A48FCF762FE4FF4FA60FCF712FBA4
:10497000FB7D002BB2D000BF00BF1837BD4680BD05
:10498000487D0008607D0008847D0008000002402A
:104990007802002080B400AF72B600BFFEE70000CE
:1049A00080B483B000AF00237B60104B5B6C0F4A78
:1049B00043F4804353640D4B5B6C03F480437B6092
:1049C0007B6800233B60094B1B6C084A43F0805313
:1049D0001364064B1B6C03F080533B603B6800BFC5
:1049E0000C37BD465DF8047B704700BF00380240BD
:1049F00080B58AB000AF786007F1140300221A6016
:104A00005A609A60DA601A617B681B68194A93429F
:104A10002BD100233B61184B5B6C174A43F4805346
:104A20005364154B5B6C03F480533B613B6900237B
:104A3000FB60114B1B6B104A43F0010313630E4BD9
:104A40001B6B03F00103FB60FB68E0237B61022327
:104A5000BB610023FB6103233B6205237B6207F1FB
:104A6000140319460548FCF75DFC00BF2837BD4616
:104A700080BD00BF0030014000380240000002400D
:104A800080B485B000AF78607B681B68B3F1804F5D
:104A90000DD10023FB60094B1B6C084A43F0010356
:104AA0001364064B1B6C03F00103FB60FB6800BF43
:104AB0001437BD465DF8047B704700BF00380240E4
:104AC00080B588B000AF786007F10C0300221A604F
:104AD0005A609A60DA601A617B681B68B3F1804F94
:104AE0001DD10023BB60104B1B6B0F4A43F0010329
:104AF00013630D4B1B6B03F00103BB60BB68022308
:104B0000FB6002233B6100237B610023BB61012327
:104B1000FB6107F10C0319460448FCF703FC00BFD6
:104B20002037BD4680BD00BF003802400000024073
:104B300080B58AB000AF786007F1140300221A60D4
:104B40005A609A60DA601A617B681B681D4A93425A
:104B500034D100233B611C4B5B6C1B4A43F01003B8
:104B60005364194B5B6C03F010033B613B690023FA
:104B7000FB60154B1B6B144A43F001031363124B8C
:104B80001B6B03F00103FB60FB684FF4C0637B61A8
:104B90000223BB610023FB6103233B6207237B628B
:104BA00007F1140319460948FCF7BCFB0022002159
:104BB0002520FCF7EEFA2520FCF707FB00BF28377D
:104BC000BD4680BD00100140003802400000024098
:104BD00080B400AFFEE780B400AFFEE780B400AF62
:104BE000FEE780B400AFFEE780B400AFFEE780B41C
:104BF00000AF00BFBD465DF8047B704780B400AFD6
:104C000000BFBD465DF8047B704780B400AF00BFB5
:104C1000BD465DF8047B704780B500AFFCF79AF99C
:104C200000BF80BD80B500AF0220FCF719FD00BFBA
:104C300080BD80B500AF0420FCF712FD00BF80BD31
:104C400080B500AF0248FEF745FA00BF80BD00BF47
:104C50007802002080B400AF01231846BD465DF8FD
:104C6000047B704780B582B000AF7860396000F097
:104C7000F3F8034616221A604FF0FF331846083740
:104C8000BD4680BD80B582B000AF78604FF0FF3187
:104C90007868FFF7E7FFFEE780B586B000AFF86001
:104CA000B9607A6000237B610AE0AFF300800146BF
:104CB000BB685A1CBA60CAB21A707B6901337B6147
:104CC0007A697B689A42F0DB7B6818461837BD46E4
:104CD00080BD80B586B000AFF860B9607A6000230F
:104CE0007B6109E0BB685A1CBA601B781846AFF3B9
:104CF00000807B6901337B617A697B689A42F1DBD2
:104D00007B6818461837BD4680BD80B483B000AFBD
:104D100078604FF0FF3318460C37BD465DF8047BD2
:104D2000704780B483B000AF786039603B684FF45F
:104D300000525A60002318460C37BD465DF8047BCC
:104D4000704780B483B000AF7860012318460C37F9
:104D5000BD465DF8047B704780B485B000AFF86055
:104D6000B9607A60002318461437BD465DF8047BAD
:104D70007047000080B586B000AF7860144A154BCC
:104D8000D31A7B617B693B61134B1B68002B02D1FB
:104D9000114B124A1A60104B1A687B6813443A6927
:104DA0009A4207D200F058F803460C221A604FF0DE
:104DB000FF3309E0084B1B68FB60074B1A687B68F0
:104DC0001344054A1360FB6818461837BD4680BD7A
:104DD0000000012000400000680200207003002055
:104DE00080B400AF064BD3F88830054A43F4700313
:104DF000C2F8883000BFBD465DF8047B704700BF35
:104E000000ED00E0DFF834D00D480E490E4A0023D3
:104E100002E0D458C4500433C4188C42F9D30B4A6E
:104E20000B4C002301E013600432A242FBD3FFF7D6
:104E3000D7FF00F017F8FFF75BFA7047000001207A
:104E400000000020DC010020A4810008DC0100201B
:104E50006C030020FEE70000014B1868704700BF9C
:104E60000C00002070B50D4D0D4C641BA4100026E5
:104E7000A64209D10B4D0C4C02F0B4FE641BA410E9
:104E80000026A64205D170BD55F8043B984701366F
:104E9000EEE755F8043B98470136F2E79C8100089D
:104EA0009C8100089C810008A08100080244034600
:104EB000934200D1704703F8011BF9E72DE9FF4742
:104EC00055EC104B002D0E4619462B46BBBF05F185
:104ED00000431D4600232D230B700D9BDDF830A0F1
:104EE000914623F02008BCBF22461446B8F1460F75
:104EF00005D0B8F1450F00D10136022100E00321B1
:104F000003AB019302AB009345EC104B5346324682
:104F100000F0EAFCB8F1470F074602D119F0010F83
:104F200022D0B8F1460F07EB060910D13B78302BA1
:104F30000AD10022002320462946FBF7CDFD18B9EF
:104F4000C6F10106CAF80060DAF800309944002280
:104F5000002320462946FBF7BFFD08B1CDF80C9091
:104F60003022039B4B4507D3039B0E9ADB1B38462D
:104F7000136004B0BDE8F087591C03911A70F0E784
:104F8000F7B503460029B8BF494203F8022BB4BF66
:104F90002D222B22092942702ADD0DF10704A44697
:104FA0000A27A6460A4691FBF7F607FB1615303589
:104FB000632A04F1FF340EF8015C3146F1DC303134
:104FC000AEF1020504F8011C441C294661450AD3D0
:104FD0000DF10902A2EB0E02654588BF00221344C1
:104FE000181A03B0F0BD11F8012B04F8012FEDE7FA
:104FF000302330318370C170031DF1E72DE9F04F8C
:105000002DED028B8DB00C46DDF8608016461F46F4
:10501000054601F055FAD0F800A05046FBF7E0F83D
:1050200000230A9323680593D8F8003094F818B049
:10503000073323F0070303F10802C8F80020D3E97F
:105040000023C4E91223D4E9128929F0004307930D
:10505000CDF8188008EE100A9F4BDDE906014FF0ED
:10506000FF32FBF76BFD88BBDDE906019A4B4FF081
:10507000FF32FBF745FD48BB00220023404649466E
:10508000FBF734FD10B12D2384F84330934B944843
:10509000BBF1470F94BF9846804603232361059BCD
:1050A00023F0040222604FF00009009733460BAA58
:1050B0002146284600F0D8F9013040F090804FF0AA
:1050C000FF300DB0BDEC028BBDE8F08F42464B4681
:1050D00040464946FBF732FD40B14B46002BBCBF72
:1050E0002D2384F843307F487F4BD1E763680BF072
:1050F000DF0206925A1C3FD106236360059B61685C
:1051000043F48062002303930AABCDE901B309ABFA
:1051100049EC108B009322600DF123032846FFF722
:10512000CDFE069B0999472B804608D1C81C02DB9F
:105130006368994241DDABF1020B5FFA8BFBBBF177
:10514000650F20D801395A4604F150000991FFF744
:1051500017FF0A9A1318012A8146236102DC22688C
:10516000D20701D5013323619DF82330002B9CD059
:105170002D2384F8433098E7069A472ABED1002BA6
:10518000BCD10123B9E7BBF1660F18D100296368D0
:105190000BDD216113B92268D00702D501330B441E
:1051A0002361A1654FF00009DEE713B92268D20739
:1051B00001D50233F4E70123F2E74FF0670B0A9BB6
:1051C000994205DB23682161D807EAD54B1CE7E744
:1051D0000029D4BFC1F1020201221344E0E7236891
:1051E0005A0507D42369424631462846B84701305C
:1051F0002CD164E7BBF1650F40F2E080D4E91201E5
:1052000000220023FBF768FC002834D0374A012332
:1052100031462846B84701303FF451AFDDE9092354
:105220009A4202DB2368D80710D518EE103A52468E
:1052300031462846B84701303FF441AF4FF00008EF
:1052400004F11A090A9B013B434509DC23689B07CB
:1052500000F10581E0680B9B9842B8BF184630E723
:1052600001234A4631462846B84701303FF427AF6C
:1052700008F10108E6E7099B002B39DC1B4A0123F2
:1052800031462846B84701303FF419AFDDE909231C
:10529000134302D12368D907D8D518EE103A5246E5
:1052A00031462846B84701303FF409AF4FF00009B6
:1052B00004F11A0A099B5B424B4501DC0A9B92E709
:1052C0000123524631462846B84701303FF4F7AE35
:1052D00009F10109EEE700BFFFFFEF7FB87D00088D
:1052E000BC7D0008C47D0008C07D0008C87D0008A2
:1052F0000A9AA36D9A42A8BF1A46002A914637DC43
:105300004FF0000B29EAE97904F11A02A36D059325
:10531000A3EB09035B4533DCDDE909239A423BDB60
:105320002368DA0738D40A9A059B0999D31AA2EBA5
:1053300001099945A8BF9946B9F1000F35DC4FF036
:10534000000829EAE97904F11A0ADDE909239B1A20
:10535000A3EB090343457FF779AF0123524631465A
:105360002846B84701303FF4AAAE08F10108ECE73F
:105370001346314642462846B8470130C0D19EE622
:105380000123314628460592B84701303FF497AED5
:10539000059A0BF1010BB9E718EE103A5246314667
:1053A0002846B8470130BED189E6059A4B464244AB
:1053B00031462846B8470130C1D180E60A9A012A11
:1053C00001DCDB0738D50123424631462846B84781
:1053D00001303FF474AE18EE103A5246314628467A
:1053E000B84701303FF46BAED4E91201002200232C
:1053F000FBF772FBD8B90A9B08F10102013B314669
:105400002846B84701300ED159E6012352463146AD
:105410002846B84701303FF452AE08F101080A9B14
:10542000013B4345F1DC4B4604F15002DCE64FF012
:10543000000804F11A0AF2E701234246DFE70123DC
:105440004A4631462846B84701303FF438AE08F1A5
:105450000108E3680B995B1A4345F0DCFAE64FF06C
:10546000000804F11909F4E72DE9F04716469946BA
:105470008A680B69DDF820809342B8BF1346336019
:1054800091F8432007460C460AB101333360236884
:10549000990642BF336802333360256815F006056C
:1054A00006D104F1190AE36832689B1AAB4226DC84
:1054B00094F84320131E226818BF012392062BD4B0
:1054C00004F1430249463846C04701301ED02368E4
:1054D000E568326803F00603042B08BFAD1AA36821
:1054E00022690CBF25EAE57500259342C4BF9B1ACB
:1054F000ED1800261A34B5421AD1002008E0012325
:10550000524649463846C047013003D14FF0FF307C
:10551000BDE8F0870135C6E7E1185A1C302081F854
:105520004300224494F8451082F843100233C7E741
:105530000123224649463846C0470130E6D00136AD
:10554000D9E700002DE9FF470C469146277E0C99CC
:10555000782F80469A4604F1430207D8622F0AD872
:10556000002F00F0D880582F00F0A38004F14206ED
:1055700084F842703AE0A7F16303152BF6D801A036
:1055800050F823F0DD550008F15500086D5500086E
:105590006D5500086D5500086D550008F15500085F
:1055A0006D5500086D5500086D5500086D550008D3
:1055B000FD56000821560008DF5600086D5500080A
:1055C0006D5500081F5700086D550008215600084A
:1055D0006D5500086D550008E75600080B681A1D48
:1055E0001B680A6004F1420684F842300123A3E0FC
:1055F000256808682E0600F104030AD505680B60CB
:10560000002D03DA2D236D4284F843305E480A23CF
:1056100019E015F0400F05680B6018BF2DB2EFE7D9
:105620000B682568181D0860280601D51D6802E072
:105630006906FBD51D8854486F2F0CBF08230A2329
:10564000002184F843106668A660002EA2BF21687E
:1056500021F0040121600DB9002E4DD01646B5FB96
:10566000F3F103FB1157C75D06F8017D2F46BB42DE
:105670000D46F4D9082B0BD12368DF0708D5236921
:1056800061689942DEBF302306F8013C06F1FF361F
:10569000921B2261CDF800A04B4603AA214640464A
:1056A000FFF7E2FE01304CD14FF0FF3004B0BDE80F
:1056B000F087354884F8457023680E681F0656F851
:1056C000045B0E6014D5D90744BF43F02003236068
:1056D0001DB9236823F0200323601023B0E723685B
:1056E00043F0200323607823284884F84530E3E71B
:1056F0005E0648BFADB2E6E71646BBE70B68266814
:1057000060691D1D0D6035061B6801D5186002E03B
:105710007106FBD51880002323611646BAE70B6893
:105720001A1D0A601E68626800213046FAF760FDA3
:1057300008B1801B606063682361002384F84330F4
:10574000A8E72369324649464046D0470130ABD0EE
:1057500023689B0713D4E068039B9842B8BF1846A0
:10576000A4E70123324649464046D04701309BD04A
:105770000135E36803995B1AAB42F2DCEBE70025E5
:1057800004F11906F5E700BFCA7D0008DB7D0008BB
:105790000EB400B59CB01DAB029006906FF00041B6
:1057A000094807910491094953F8042B05910068B1
:1057B000019302A901F032FB029B00221A701CB077
:1057C0005DF804EB03B070470C0000200802FFFFF7
:1057D0002DE9F74F03690C69A3420746C0F28180A7
:1057E000013C01F1140800F1140505EB8403019359
:1057F00058F8243055F8242001339A424FEA840B9C
:1058000008EB8409B2FBF3F631D34FF0000E4046AB
:10581000AC46F24650F8042B93B206FB03E34FEA82
:10582000134E9BB2AAEB0303120CDCF800A006FB9C
:1058300002E213FA8AF34FEA124E1FFA82FADCF8F8
:105840000020CAEB124202EB23429BB243EA02431E
:1058500081454CF8043B4FEA224ADBD255F80B3025
:105860002BB9019B043B9D421A462ED33C6138461E
:1058700001F0BEF8002824DB013628464FF0000C6A
:1058800058F8042BD0F800E093B2ACEB0303120CF1
:1058900013FA8EF3C2EB1E4202EB23429BB243EAA1
:1058A0000243C14540F8043B4FEA224CE8D255F888
:1058B000242005EB840322B9043B9D421A460AD3F7
:1058C0003C61304603B0BDE8F08F1268043B002A0B
:1058D000CCD1013CC7E71268043B002AF0D1013C5F
:1058E000EBE70020EEE700002DE9F04F2DED028BF5
:1058F00057EC106B95B0456ADDF880800591CDE9D5
:105900000267044609920F9375B9102000F0DCFD80
:105910000246606220B9B24BEA21B24801F08EFB28
:10592000C0E901550560C560636A196851B15A68DC
:105930004A60012393408B60204600F01BFE636A9F
:1059400000221A603B1EB9BF23F0004303930023DB
:10595000C8F80030DDF80C90A34BBCBF0122C8F89A
:10596000002033EA09031BD10F9A42F20F73136030
:10597000C9F31303334300F07A85219B63B99B4B32
:1059800024E09B4B00930833219A1360009815B0D4
:10599000BDEC028BBDE8F08F944B00930333F3E72B
:1059A0009DED027B002251EC170B00238DED0A7B4D
:1059B000FBF792F8804658B10F9A01231360219BA0
:1059C000002B00F051858B481860431E0093DDE7E3
:1059D0009DED0A0B12AA13A9204601F0ADF8C9F3F8
:1059E0000A558346002D7CD00B9BCDF84080C3F335
:1059F0001303DDE90A6743F07F5747F44017A5F228
:105A0000FF357D4B002230463946FAF745FC6EA340
:105A1000D3E90023FAF7F8FD6DA3D3E90023FAF7E1
:105A20003DFC064628460F46FAF784FD6AA3D3E9F3
:105A30000023FAF7E9FD02460B4630463946FAF7ED
:105A40002DFC06460F46FBF78FF800228246002306
:105A500030463946FBF74AF848B15046FAF76AFD36
:105A600032463B46FBF738F808B90AF1FF3ABAF17B
:105A7000160F54D8614B03EBCA03D3E90023DDE9C9
:105A80000A01FBF733F800284BD00AF1FF3A002354
:105A90000E93129B5D1B6B1E049343BF0023C5F145
:105AA000010804934FF00008BAF1000F3BDB049BA0
:105AB000CDF834A05344049300230693059B092B8F
:105AC00069D8052BC4BF043B0593059BA3F10203D2
:105AD000CCBF00250125032B69D8DFE803F02C4E4D
